:100000000C943D000C945A000C945A000C945A0025
:100010000C945A000C945A000C945A000C945A00F8
:100020000C945A000C945A000C945A000C945A00E8
:100030000C945A000C945A000C948F000C945A00A3
:100040000C945A000C945A000C9478010C945A00A9
:100050000C945A000C945A000C945A000C945A00B8
:100060000C945A000C945A00303132333435363700
:100070003839414243444546000011241FBECFEFAA
:10008000D8E0DEBFCDBF11E0A0E0B1E0EAEFF4E0E0
:1000900002C005900D92A036B107D9F724E0A0E682
:1000A000B1E001C01D92A138B207E1F70E94390208
:1000B0000C947B020C94000084B5826084BD8DE7B3
:1000C00087BD85B5836085BD82E080936E0008950D
:1000D00060916A0370916B0380916C0390916D0342
:1000E00008950F931F9300916A0310916B03209161
:1000F0006C0330916D03600F711F821F931F00917D
:100100006A0310916B0320916C0330916D036017AB
:1001100071078207930798F71F910F9108951F9217
:100120000F920FB60F9211248F939F93AF93BF93AB
:1001300080916A0390916B03A0916C03B0916D0361
:100140000196A11DB11D80936A0390936B03A09348
:100150006C03B0936D03BF91AF919F918F910F90FE
:100160000FBE0F901F90189580916A0390916B03BA
:10017000A0916C03B0916D030196A11DB11D8093F8
:100180006A0390936B03A0936C03B0936D0308957F
:1001900010926E0310927503109274031092730301
:1001A00010926F03109270031092710310927203F9
:1001B00010927C0310927B0310927A0310927603C4
:1001C000109277031092780310927903089508959E
:1001D00008951092C5008CE08093C400E1ECF0E03B
:1001E000808188688083808188618083E2ECF0E090
:1001F00080818660808308951092C5002CE0209352
:10020000C400E1ECF0E0208128682083208128618F
:100210002083E2ECF0E020812660208390937E032F
:1002200080937D03089540916003509161039A018A
:100230002F5F3F4F31706091620370916303261707
:10024000370741F0FA01E05AFE4F80833093610393
:1002500020936003089584E092E0E0E6F1E0DF019E
:100260009C011D9221503040E1F708958091600378
:1002700090916203891B089520916203309163037A
:1002800080916003909161038217930761F0F901F7
:10029000E05AFE4F80812F5F3F4F317030936303F0
:1002A0002093620308958FEF08959091C00095FF09
:1002B000FCCF8093C6000895FC019F01281B390BD9
:1002C0002617370744F42091C00025FFFCCF219169
:1002D0002093C600F2CF0895FC018191882339F064
:1002E0009091C00095FFFCCF8093C600F6CF089593
:1002F0001F920F920FB60F9211242F933F934F939B
:100300005F936F937F938F939F93AF93BF93EF937D
:10031000FF938091C6000E941301FF91EF91BF915E
:10032000AF919F918F917F916F915F914F913F918D
:100330002F910F900FBE0F901F901895109265038C
:100340001092640381E8EFE7F3E0DF011D928A95E4
:10035000E9F7089581E8E0E0F4E0DF011D928A9575
:10036000E9F708950E94E9000E949E010C94AA01F9
:100370000E943C01811102C080E008952091640335
:100380003091650320383105BCF7F901E158FC4F85
:1003900080832F5F3F4F30936503209364038D303C
:1003A00059F76FE773E080E094E00E945A020E94E0
:1003B0009E0181E008950E943601882371F00E9419
:1003C000B801882351F080E094E00E946C018CE237
:1003D00091E00E946C010C94AA010895CF93DF93E1
:1003E000EB01BC0180E094E00E946102892B29F4BA
:1003F000209729F01982188202C080E001C081E0B4
:10040000DF91CF910895CF92DF92EF92FF926B012F
:100410007C010E9468006C0D7D1D8E1D9F1D6093E8
:100420006603709367038093680390936903FF905A
:10043000EF90DF90CF9008950F931F930E94680074
:10044000009166031091670320916803309169035E
:10045000601771078207930740F068EE73E080E051
:1004600090E00E94030281E001C080E01F910F91A3
:100470000895259A0E945C000E94C8000E94B20163
:10048000789481E191E00E946C018FE291E00E94FA
:100490006C01C0E20E94DB010E941C028823D1F3A0
:1004A00085B18C2785B968EE73E080E090E00E940A
:1004B0000302F0CFFB01DC0101900D920020E1F777
:1004C0000895FB0151915523A9F0BF01DC014D9125
:1004D00045174111E1F759F4CD010190002049F091
:1004E0004D9140154111C9F3FB014111EFCF81E05E
:0A04F00090E001970895F894FFCF03
:1004FA003031323334353637383961626364656690
:10050A00007370696B655F333238705F757361723F
:10051A007420737461727465642E2E2E0D0A006540
:10052A006E74657220736F6D6520746578742066C9
:10053A006F6C6C6F776564206279206120636172E9
:10054A0072696167652072657475726E0D0A0000C2
:00000001FF
